{
  "abi": [
    {
      "inputs": [
        {
          "internalType": "contract ISuperfluid",
          "name": "host_",
          "type": "address"
        }
      ],
      "stateMutability": "nonpayable",
      "type": "constructor"
    },
    {
      "anonymous": false,
      "inputs": [
        {
          "indexed": true,
          "internalType": "contract ISuperToken",
          "name": "superToken",
          "type": "address"
        },
        {
          "indexed": true,
          "internalType": "address",
          "name": "flowSplitterCreator",
          "type": "address"
        },
        {
          "indexed": false,
          "internalType": "address",
          "name": "mainReceiver",
          "type": "address"
        },
        {
          "indexed": false,
          "internalType": "address",
          "name": "sideReceiver",
          "type": "address"
        },
        {
          "indexed": false,
          "internalType": "address",
          "name": "flowSplitter",
          "type": "address"
        },
        {
          "indexed": false,
          "internalType": "int96",
          "name": "mainReceiverPortion",
          "type": "int96"
        },
        {
          "indexed": false,
          "internalType": "int96",
          "name": "sideReceiverPortion",
          "type": "int96"
        }
      ],
      "name": "FlowSplitterCreated",
      "type": "event"
    },
    {
      "inputs": [],
      "name": "HOST",
      "outputs": [
        {
          "internalType": "contract ISuperfluid",
          "name": "",
          "type": "address"
        }
      ],
      "stateMutability": "view",
      "type": "function"
    },
    {
      "inputs": [
        {
          "internalType": "contract ISuperToken",
          "name": "superToken_",
          "type": "address"
        },
        {
          "internalType": "address",
          "name": "mainReceiver_",
          "type": "address"
        },
        {
          "internalType": "address",
          "name": "sideReceiver_",
          "type": "address"
        },
        {
          "internalType": "int96",
          "name": "sideReceiverPortion_",
          "type": "int96"
        }
      ],
      "name": "deployFlowSplitter",
      "outputs": [
        {
          "internalType": "address",
          "name": "flowSplitter",
          "type": "address"
        }
      ],
      "stateMutability": "nonpayable",
      "type": "function"
    }
  ],
  "bytecode": {
    "object": "0x60a060405234801561001057600080fd5b506040516127e33803806127e383398101604081905261002f916100ce565b600073__$e7e32d16fe8fb3ab64f85f3c048952484a$__6320bc44256040518163ffffffff1660e01b8152600401602060405180830381865af4925050508015610096575060408051601f3d908101601f19168201909252610093918101906100ce565b60015b6100a15750806100a4565b90505b6001600160a01b0316608052506100f2565b6001600160a01b03811681146100cb57600080fd5b50565b6000602082840312156100e057600080fd5b81516100eb816100b6565b9392505050565b6080516126d161011260003960008181606f0152609601526126d16000f3fe608060405234801561001057600080fd5b50600436106100365760003560e01c80632a58133b1461003b57806349f289dc1461006a575b600080fd5b61004e6100493660046101c2565b610091565b6040516001600160a01b03909116815260200160405180910390f35b61004e7f000000000000000000000000000000000000000000000000000000000000000081565b6000807f0000000000000000000000000000000000000000000000000000000000000000868686866040516100c59061019d565b6001600160a01b039586168152938516602085015291841660408401529092166060820152600b9190910b608082015260a001604051809103906000f080158015610114573d6000803e3d6000fd5b509150819050336001600160a01b0387167ff23d9c3ad72ff530cfaafb9d3c8eab18b6b12b7027e86b249a69122a37dc7617878785610155896103e8610225565b604080516001600160a01b03958616815293851660208501529190931690820152600b91820b60608201529087900b608082015260a00160405180910390a350949350505050565b61242b8061027183390190565b6001600160a01b03811681146101bf57600080fd5b50565b600080600080608085870312156101d857600080fd5b84356101e3816101aa565b935060208501356101f3816101aa565b92506040850135610203816101aa565b91506060850135600b81900b811461021a57600080fd5b939692955090935050565b600b82810b9082900b036b7fffffffffffffffffffffff1981126b7fffffffffffffffffffffff8213171561026a57634e487b7160e01b600052601160045260246000fd5b9291505056fe6101006040523480156200001257600080fd5b506040516200242b3803806200242b8339810160408190526200003591620001b0565b6001600160a01b03851660805284600180806401000000016040516315a722b960e31b8152600481018290526001600160a01b0386169063ad3915c890602401600060405180830381600087803b1580156200009057600080fd5b505af1158015620000a5573d6000803e3d6000fd5b505050505050505050600081600b0b131580620000c6575080600b0b6103e8145b15620000e557604051630fd3ebeb60e31b815260040160405180910390fd5b816001600160a01b0316836001600160a01b0316036200011857604051635292a99360e01b815260040160405180910390fd5b6001600160a01b0383163014806200013857506001600160a01b03821630145b1562000157576040516321c18ec360e21b815260040160405180910390fd5b6001600160a01b0393841660e05291831660a05290911660c052600080546001600160601b0319166001600160601b039092169190911790555062000236565b6001600160a01b0381168114620001ad57600080fd5b50565b600080600080600060a08688031215620001c957600080fd5b8551620001d68162000197565b6020870151909550620001e98162000197565b6040870151909450620001fc8162000197565b60608701519093506200020f8162000197565b80925050608086015180600b0b81146200022857600080fd5b809150509295509295909350565b60805160a05160c05160e0516120ab620003806000396000818160ff0152818161062c015281816107b801528181610814015281816108bc01528181610baf01528181610c6601528181610d0301528181610d570152818161125b0152611312015260008181610221015281816107e3015281816108e901528181610c1e01528181610c8901528181610d2601528181610df101528181610e9401528181610f2c015281816111c8015281816112ca0152611335015260008181610163015281816108370152818161087c01528181610b5d01528181610bd201528181610d7a01528181610db601528181610e5d01528181610ec90152818161112e0152818161116501528181611209015261127e0152600081816101d4015281816102f1015281816104750152818161055201528181610669015281816109660152610a6801526120ab6000f3fe608060405234801561001057600080fd5b50600436106100f55760003560e01c80635f9e7d7711610097578063b22e972911610066578063b22e972914610279578063bcb4546f1461028e578063d7d58650146102b1578063d86ed3e5146102d157600080fd5b80635f9e7d77146102095780636b2913061461021c57806372ca8a3e14610243578063884d1f401461026657600080fd5b806330d9c915116100d357806330d9c9151461018557806331eff9971461019857806349f289dc146101cf57806353c11f99146101f657600080fd5b8063165b9d55146100fa578063230dbd291461013e5780632ccf7c421461015e575b600080fd5b6101217f000000000000000000000000000000000000000000000000000000000000000081565b6040516001600160a01b0390911681526020015b60405180910390f35b61015161014c3660046119f2565b6102e4565b6040516101359190611b0d565b6101217f000000000000000000000000000000000000000000000000000000000000000081565b610151610193366004611b27565b6103e6565b6101ab6101a6366004611bd5565b61040b565b60408051600b94850b815292840b6020840152920b91810191909152606001610135565b6101217f000000000000000000000000000000000000000000000000000000000000000081565b6101516102043660046119f2565b610468565b610151610217366004611b27565b610545565b6101217f000000000000000000000000000000000000000000000000000000000000000081565b610256610251366004611c0e565b61062a565b6040519015158152602001610135565b610151610274366004611b27565b61065c565b61028c610287366004611c2b565b610759565b005b6102a360008051602061205683398151915281565b604051908152602001610135565b6000546102be90600b0b81565b604051600b9190910b8152602001610135565b6101516102df3660046119f2565b610959565b6060336001600160a01b037f0000000000000000000000000000000000000000000000000000000000000000161461032f57604051632f2d36a760e01b815260040160405180910390fd5b61033889610a42565b61037b5782828080601f0160208091040260200160405190810160405280939291908181526020018383808284376000920191909152509293506103d992505050565b6103848a61062a565b6103a157604051631ea25bab60e31b815260040160405180910390fd5b60006103af87890189611c48565b5090506000806103c187890189611c76565b915091506103d38d8484848a8a610af6565b93505050505b9998505050505050505050565b604080518082019091526002815261060f60f31b60208201525b979650505050505050565b600080806103e861041c8582611cb8565b6104269087611cf0565b6104309190611d17565b92506103e861043f8587611cf0565b6104499190611d17565b91506104558284611d63565b61045f9086611cb8565b90509250925092565b6060336001600160a01b037f0000000000000000000000000000000000000000000000000000000000000000161415806104a857506104a689610a42565b155b806104b957506104b78a61062a565b155b156104fd5782828080601f0160208091040260200160405190810160405280939291908181526020018383808284376000920191909152509293506103d992505050565b60008061050c888a018a611c48565b9092509050600080610520888a018a611d95565b915091506105338e858584868c8c610cb9565b9e9d5050505050505050505050505050565b6060336001600160a01b037f000000000000000000000000000000000000000000000000000000000000000016141580610585575061058387610a42565b155b8061059657506105948861062a565b155b156105ba5750604080518082019091526002815261060f60f31b6020820152610400565b6000806105c986880188611c48565b90925090506000806105e56001600160a01b038d168585610f6c565b505091509150818160405160200161060a929190918252600b0b602082015260400190565b604051602081830303815290604052945050505050979650505050505050565b7f00000000000000000000000000000000000000000000000000000000000000006001600160a01b0390811691161490565b6060336001600160a01b037f000000000000000000000000000000000000000000000000000000000000000016146106a757604051632f2d36a760e01b815260040160405180910390fd5b6106b087610a42565b6106d35750604080518082019091526002815261060f60f31b6020820152610400565b6106dc8861062a565b6106f957604051631ea25bab60e31b815260040160405180910390fd5b600061070785870187611c48565b5090506000806107216001600160a01b038c168430610f6c565b505060408051600b9290920b60208301528181019290925281518082038301815260609091019091529b9a5050505050505050505050565b600081600b0b131580610770575080600b0b6103e8145b1561078e57604051630fd3ebeb60e31b815260040160405180910390fd5b600080546bffffffffffffffffffffffff19166bffffffffffffffffffffffff83161781556108077f00000000000000000000000000000000000000000000000000000000000000006001600160a01b0316307f000000000000000000000000000000000000000000000000000000000000000061100e565b61085b6001600160a01b037f000000000000000000000000000000000000000000000000000000000000000016307f000000000000000000000000000000000000000000000000000000000000000061100e565b6108659190611d63565b90506000610875836103e8611cb8565b90506108e37f00000000000000000000000000000000000000000000000000000000000000006103e86108a88486611cf0565b6108b29190611d17565b6001600160a01b037f00000000000000000000000000000000000000000000000000000000000000001691906110a6565b506109157f00000000000000000000000000000000000000000000000000000000000000006103e86108a88686611cf0565b5060408051600b83810b825285900b60208201527f8d30480b6778bcc522e9b6a4315d4912921066256b74480d5befbe2f2e958f17910160405180910390a1505050565b6060336001600160a01b037f000000000000000000000000000000000000000000000000000000000000000016146109a457604051632f2d36a760e01b815260040160405180910390fd5b6109ad89610a42565b6109f05782828080601f0160208091040260200160405190810160405280939291908181526020018383808284376000920191909152509293506103d992505050565b6109f98a61062a565b610a1657604051631ea25bab60e31b815260040160405180910390fd5b6000610a2487890189611c48565b509050610a338b8286866110cd565b9b9a5050505050505050505050565b604051635b69006f60e11b815260008051602061205683398151915260048201526000907f00000000000000000000000000000000000000000000000000000000000000006001600160a01b03169063b6d200de90602401602060405180830381865afa158015610ab7573d6000803e3d6000fd5b505050506040513d601f19601f82011682018060405250810190610adb9190611dba565b6001600160a01b0316826001600160a01b0316149050919050565b606082828080601f0160208091040260200160405190810160405280939291908181526020018383808284376000920182905250939450889250610b479150506001600160a01b038a16893061100e565b610b519190611cb8565b600054909150610c12907f0000000000000000000000000000000000000000000000000000000000000000906103e890610b8e90600b0b82611cb8565b610b989085611cf0565b610ba29190611d17565b610bf66001600160a01b037f000000000000000000000000000000000000000000000000000000000000000016307f000000000000000000000000000000000000000000000000000000000000000061100e565b610c009190611d63565b6001600160a01b038b16919085611365565b600054909250610cad907f0000000000000000000000000000000000000000000000000000000000000000906103e890610c4f90600b0b85611cf0565b610c599190611d17565b610bf66001600160a01b037f000000000000000000000000000000000000000000000000000000000000000016307f000000000000000000000000000000000000000000000000000000000000000061100e565b98975050505050505050565b606082828080601f0160208091040260200160405190810160405280939291908181526020018383808284376000920182905250939450889250610d4a9150506001600160a01b037f000000000000000000000000000000000000000000000000000000000000000016307f000000000000000000000000000000000000000000000000000000000000000061100e565b610d9e6001600160a01b037f000000000000000000000000000000000000000000000000000000000000000016307f000000000000000000000000000000000000000000000000000000000000000061100e565b610da89190611d63565b610db29190611cb8565b90507f00000000000000000000000000000000000000000000000000000000000000006001600160a01b0316876001600160a01b03161480610e2557507f00000000000000000000000000000000000000000000000000000000000000006001600160a01b0316876001600160a01b0316145b15610e4257610e3f6001600160a01b038a16888885611483565b91505b600081600b0b13610ec057610e826001600160a01b038a16307f0000000000000000000000000000000000000000000000000000000000000000856114d1565b9150610eb96001600160a01b038a16307f0000000000000000000000000000000000000000000000000000000000000000856114d1565b9150610f60565b600054610f20907f0000000000000000000000000000000000000000000000000000000000000000906103e890610efa90600b0b82611cb8565b610f049085611cf0565b610f0e9190611d17565b6001600160a01b038c16919085611365565b600054909250610f5d907f0000000000000000000000000000000000000000000000000000000000000000906103e890610f0490600b0b85611cf0565b91505b50979650505050505050565b6000806000806000610f7d8861155d565b604051631cd43d1160e31b81526001600160a01b038b811660048301528a811660248301528981166044830152919350908316915063e6a1e88890606401608060405180830381865afa158015610fd8573d6000803e3d6000fd5b505050506040513d601f19601f82011682018060405250810190610ffc9190611dd7565b929b919a509850909650945050505050565b60008061101a8561155d565b604051631cd43d1160e31b81526001600160a01b03888116600483015287811660248301528681166044830152919350908316915063e6a1e88890606401608060405180830381865afa158015611075573d6000803e3d6000fd5b505050506040513d601f19601f820116820180604052508101906110999190611dd7565b5090979650505050505050565b604080516000808252602082019092526110c5908590859085906116cc565b949350505050565b606082828080601f016020809104026020016040519081016040528093929190818152602001838380828437600092018290525093945061111c925050506001600160a01b038716863061100e565b90506111526001600160a01b038716307f000000000000000000000000000000000000000000000000000000000000000061100e565b600b0b600003611200576000546111bc907f0000000000000000000000000000000000000000000000000000000000000000906103e89061119690600b0b82611cb8565b6111a09085611cf0565b6111aa9190611d17565b6001600160a01b038916919085611483565b6000549092506111f9907f0000000000000000000000000000000000000000000000000000000000000000906103e8906111a090600b0b85611cf0565b915061135c565b6000546112be907f0000000000000000000000000000000000000000000000000000000000000000906103e89061123a90600b0b82611cb8565b6112449085611cf0565b61124e9190611d17565b6112a26001600160a01b037f000000000000000000000000000000000000000000000000000000000000000016307f000000000000000000000000000000000000000000000000000000000000000061100e565b6112ac9190611d63565b6001600160a01b038916919085611365565b600054909250611359907f0000000000000000000000000000000000000000000000000000000000000000906103e8906112fb90600b0b85611cf0565b6113059190611d17565b6112a26001600160a01b037f000000000000000000000000000000000000000000000000000000000000000016307f000000000000000000000000000000000000000000000000000000000000000061100e565b91505b50949350505050565b6060600080611373876117f8565b91509150816001600160a01b0316634329d29382836001600160a01b03166350209a628b8b8b600067ffffffffffffffff8111156113b3576113b3611e15565b6040519080825280601f01601f1916602001820160405280156113dd576020820181803683370190505b506040516024016113f19493929190611e2b565b60408051808303601f1901815291815260208201805160e094851b6001600160e01b03909116179052519185901b6001600160e01b031916825261143c939250908990600401611e6b565b6000604051808303816000875af115801561145b573d6000803e3d6000fd5b505050506040513d6000823e601f3d908101601f19168201604052610f609190810190611f3c565b6060600080611491876117f8565b91509150816001600160a01b0316634329d29382836001600160a01b03166362fc305e8b8b8b600067ffffffffffffffff8111156113b3576113b3611e15565b60606000806114df876117f8565b91509150816001600160a01b0316634329d29382836001600160a01b031663b4b333c68b8b8b600067ffffffffffffffff81111561151f5761151f611e15565b6040519080825280601f01601f191660200182016040528015611549576020820181803683370190505b506040516024016113f19493929190611fa0565b7f65599bf746e17a00ea62e3610586992d88101b78eec3cf380706621fb97ea837547fb969d79d88acd02d04ed7ee7d43b949e7daf093d363abcfbbc43dfdfd1ce969a546001600160a01b03811661169b576001600160a01b03821661162257826001600160a01b03166320bc44256040518163ffffffff1660e01b8152600401602060405180830381865afa1580156115fb573d6000803e3d6000fd5b505050506040513d601f19601f8201168201806040525081019061161f9190611dba565b91505b604051635b69006f60e11b815260008051602061205683398151915260048201526001600160a01b0383169063b6d200de90602401602060405180830381865afa158015611674573d6000803e3d6000fd5b505050506040513d601f19601f820116820180604052508101906116989190611dba565b90505b6001600160a01b0382166116b1576116b1611fd4565b6001600160a01b0381166116c7576116c7611fd4565b915091565b60008060006116da876117f8565b91509150816001600160a01b03166339255d5b82836001600160a01b03166350209a628b8b8b600067ffffffffffffffff81111561171a5761171a611e15565b6040519080825280601f01601f191660200182016040528015611744576020820181803683370190505b506040516024016117589493929190611e2b565b60408051808303601f1901815291815260208201805160e094851b6001600160e01b03909116179052519185901b6001600160e01b03191682526117a3939250908990600401611fea565b6000604051808303816000875af11580156117c2573d6000803e3d6000fd5b505050506040513d6000823e601f3d908101601f191682016040526117ea9190810190612020565b506001979650505050505050565b7f65599bf746e17a00ea62e3610586992d88101b78eec3cf380706621fb97ea837547fb969d79d88acd02d04ed7ee7d43b949e7daf093d363abcfbbc43dfdfd1ce969a546001600160a01b03811661169b576001600160a01b0382166118bd57826001600160a01b03166320bc44256040518163ffffffff1660e01b8152600401602060405180830381865afa158015611896573d6000803e3d6000fd5b505050506040513d601f19601f820116820180604052508101906118ba9190611dba565b91505b604051635b69006f60e11b815260008051602061205683398151915260048201526001600160a01b0383169063b6d200de90602401602060405180830381865afa15801561190f573d6000803e3d6000fd5b505050506040513d601f19601f820116820180604052508101906119339190611dba565b9050817f65599bf746e17a00ea62e3610586992d88101b78eec3cf380706621fb97ea83755807fb969d79d88acd02d04ed7ee7d43b949e7daf093d363abcfbbc43dfdfd1ce969a556001600160a01b0382166116b1576116b1611fd4565b6001600160a01b03811681146119a657600080fd5b50565b60008083601f8401126119bb57600080fd5b50813567ffffffffffffffff8111156119d357600080fd5b6020830191508360208285010111156119eb57600080fd5b9250929050565b600080600080600080600080600060c08a8c031215611a1057600080fd5b8935611a1b81611991565b985060208a0135611a2b81611991565b975060408a0135965060608a013567ffffffffffffffff80821115611a4f57600080fd5b611a5b8d838e016119a9565b909850965060808c0135915080821115611a7457600080fd5b611a808d838e016119a9565b909650945060a08c0135915080821115611a9957600080fd5b50611aa68c828d016119a9565b915080935050809150509295985092959850929598565b60005b83811015611ad8578181015183820152602001611ac0565b50506000910152565b60008151808452611af9816020860160208601611abd565b601f01601f19169290920160200192915050565b602081526000611b206020830184611ae1565b9392505050565b600080600080600080600060a0888a031215611b4257600080fd5b8735611b4d81611991565b96506020880135611b5d81611991565b955060408801359450606088013567ffffffffffffffff80821115611b8157600080fd5b611b8d8b838c016119a9565b909650945060808a0135915080821115611ba657600080fd5b50611bb38a828b016119a9565b989b979a50959850939692959293505050565b80600b0b81146119a657600080fd5b60008060408385031215611be857600080fd5b8235611bf381611bc6565b91506020830135611c0381611bc6565b809150509250929050565b600060208284031215611c2057600080fd5b8135611b2081611991565b600060208284031215611c3d57600080fd5b8135611b2081611bc6565b60008060408385031215611c5b57600080fd5b8235611c6681611991565b91506020830135611c0381611991565b60008060408385031215611c8957600080fd5b8235611c9481611bc6565b946020939093013593505050565b634e487b7160e01b600052601160045260246000fd5b600b82810b9082900b0360016001605f1b031981126b7fffffffffffffffffffffff82131715611cea57611cea611ca2565b92915050565b600082600b0b82600b0b0280600b0b9150808214611d1057611d10611ca2565b5092915050565b600081600b0b83600b0b80611d3c57634e487b7160e01b600052601260045260246000fd5b60016001605f1b0319821460001982141615611d5a57611d5a611ca2565b90059392505050565b600b81810b9083900b016b7fffffffffffffffffffffff811360016001605f1b031982121715611cea57611cea611ca2565b60008060408385031215611da857600080fd5b823591506020830135611c0381611bc6565b600060208284031215611dcc57600080fd5b8151611b2081611991565b60008060008060808587031215611ded57600080fd5b845193506020850151611dff81611bc6565b6040860151606090960151949790965092505050565b634e487b7160e01b600052604160045260246000fd5b6001600160a01b03858116825284166020820152600b83900b6040820152608060608201819052600090611e6190830184611ae1565b9695505050505050565b6001600160a01b0384168152608060208201819052600090611e8f90830185611ae1565b8281038060408501526002825261060f60f31b6020830152604081016060850152506113596040820185611ae1565b600082601f830112611ecf57600080fd5b815167ffffffffffffffff80821115611eea57611eea611e15565b604051601f8301601f19908116603f01168101908282118183101715611f1257611f12611e15565b81604052838152866020858801011115611f2b57600080fd5b611e61846020830160208901611abd565b60008060408385031215611f4f57600080fd5b825167ffffffffffffffff80821115611f6757600080fd5b611f7386838701611ebe565b93506020850151915080821115611f8957600080fd5b50611f9685828601611ebe565b9150509250929050565b6001600160a01b038581168252848116602083015283166040820152608060608201819052600090611e6190830184611ae1565b634e487b7160e01b600052600160045260246000fd5b6001600160a01b038416815260606020820181905260009061200e90830185611ae1565b82810360408401526113598185611ae1565b60006020828403121561203257600080fd5b815167ffffffffffffffff81111561204957600080fd5b6110c584828501611ebe56fea9214cc96615e0085d3bb077758db69497dc2dce3b2b1e97bc93c3d18d83efd3a2646970667358221220196a24f0ed4f717bb87a2ace30f0662b2b8dc30354a132fe6670e01d7054fdaf64736f6c63430008130033a2646970667358221220b83df7f419e5c2fb8f47d527e28027ac19652e9e6f70464df1a3ac41dc334d3e64736f6c63430008130033",
    "linkReferences": {
      "lib/superfluid-protocol-monorepo/packages/ethereum-contracts/contracts/apps/SuperfluidLoaderLibrary.sol": {
        "SuperfluidLoaderLibrary": [
          {
            "start": 51,
            "length": 20
          }
        ]
      }
    }
  },
  "methodIdentifiers": {
    "HOST()": "49f289dc",
    "deployFlowSplitter(address,address,address,int96)": "2a58133b"
  },
  "id": 114
}