{
  "abi": [
    {
      "inputs": [
        {
          "internalType": "contract ISuperfluid",
          "name": "host_",
          "type": "address"
        }
      ],
      "stateMutability": "nonpayable",
      "type": "constructor"
    },
    {
      "anonymous": false,
      "inputs": [
        {
          "indexed": true,
          "internalType": "contract ISuperToken",
          "name": "superToken",
          "type": "address"
        },
        {
          "indexed": true,
          "internalType": "address",
          "name": "flowSplitterCreator",
          "type": "address"
        },
        {
          "indexed": false,
          "internalType": "address",
          "name": "mainReceiver",
          "type": "address"
        },
        {
          "indexed": false,
          "internalType": "address",
          "name": "sideReceiver",
          "type": "address"
        },
        {
          "indexed": false,
          "internalType": "address",
          "name": "flowSplitter",
          "type": "address"
        },
        {
          "indexed": false,
          "internalType": "int96",
          "name": "mainReceiverPortion",
          "type": "int96"
        },
        {
          "indexed": false,
          "internalType": "int96",
          "name": "sideReceiverPortion",
          "type": "int96"
        }
      ],
      "name": "FlowSplitterCreated",
      "type": "event"
    },
    {
      "inputs": [],
      "name": "HOST",
      "outputs": [
        {
          "internalType": "contract ISuperfluid",
          "name": "",
          "type": "address"
        }
      ],
      "stateMutability": "view",
      "type": "function"
    },
    {
      "inputs": [
        {
          "internalType": "contract ISuperToken",
          "name": "superToken_",
          "type": "address"
        },
        {
          "internalType": "address",
          "name": "mainReceiver_",
          "type": "address"
        },
        {
          "internalType": "address",
          "name": "sideReceiver_",
          "type": "address"
        },
        {
          "internalType": "int96",
          "name": "sideReceiverPortion_",
          "type": "int96"
        }
      ],
      "name": "deployFlowSplitter",
      "outputs": [
        {
          "internalType": "address",
          "name": "flowSplitter",
          "type": "address"
        }
      ],
      "stateMutability": "nonpayable",
      "type": "function"
    }
  ],
  "bytecode": {
    "object": "0x60a060405234801561001057600080fd5b5060405161289538038061289583398101604081905261002f916100ce565b600073__$e7e32d16fe8fb3ab64f85f3c048952484a$__6320bc44256040518163ffffffff1660e01b8152600401602060405180830381865af4925050508015610096575060408051601f3d908101601f19168201909252610093918101906100ce565b60015b6100a15750806100a4565b90505b6001600160a01b0316608052506100f2565b6001600160a01b03811681146100cb57600080fd5b50565b6000602082840312156100e057600080fd5b81516100eb816100b6565b9392505050565b60805161278361011260003960008181606f0152609601526127836000f3fe608060405234801561001057600080fd5b50600436106100365760003560e01c80632a58133b1461003b57806349f289dc1461006a575b600080fd5b61004e6100493660046101cb565b610091565b6040516001600160a01b03909116815260200160405180910390f35b61004e7f000000000000000000000000000000000000000000000000000000000000000081565b6000807f000000000000000000000000000000000000000000000000000000000000000086338787876040516100c6906101a6565b6001600160a01b0396871681529486166020860152928516604085015290841660608401529092166080820152600b9190910b60a082015260c001604051809103906000f08015801561011d573d6000803e3d6000fd5b509150819050336001600160a01b0387167ff23d9c3ad72ff530cfaafb9d3c8eab18b6b12b7027e86b249a69122a37dc761787878561015e896103e861022e565b604080516001600160a01b03958616815293851660208501529190931690820152600b91820b60608201529087900b608082015260a00160405180910390a350949350505050565b6124d48061027a83390190565b6001600160a01b03811681146101c857600080fd5b50565b600080600080608085870312156101e157600080fd5b84356101ec816101b3565b935060208501356101fc816101b3565b9250604085013561020c816101b3565b91506060850135600b81900b811461022357600080fd5b939692955090935050565b600b82810b9082900b036b7fffffffffffffffffffffff1981126b7fffffffffffffffffffffff8213171561027357634e487b7160e01b600052601160045260246000fd5b9291505056fe6101206040523480156200001257600080fd5b50604051620024d4380380620024d48339810160408190526200003591620001b7565b6001600160a01b03861660805285600180806401000000016040516315a722b960e31b8152600481018290526001600160a01b0386169063ad3915c890602401600060405180830381600087803b1580156200009057600080fd5b505af1158015620000a5573d6000803e3d6000fd5b505050505050505050600081600b0b131580620000c6575080600b0b6103e8145b15620000e557604051630fd3ebeb60e31b815260040160405180910390fd5b816001600160a01b0316836001600160a01b0316036200011857604051635292a99360e01b815260040160405180910390fd5b6001600160a01b0383163014806200013857506001600160a01b03821630145b1562000157576040516321c18ec360e21b815260040160405180910390fd5b6001600160a01b039485166101005292841660e05290831660a05290911660c052600080546001600160601b0319166001600160601b039092169190911790555062000251565b6001600160a01b0381168114620001b457600080fd5b50565b60008060008060008060c08789031215620001d157600080fd5b8651620001de816200019e565b6020880151909650620001f1816200019e565b604088015190955062000204816200019e565b606088015190945062000217816200019e565b60808801519093506200022a816200019e565b8092505060a087015180600b0b81146200024357600080fd5b809150509295509295509295565b60805160a05160c05160e05161010051612126620003ae6000396000818161010a0152818161065e015281816108330152818161088f0152818161093701528181610c2a01528181610ce101528181610d7e01528181610dd2015281816112d6015261138d0152600081816102f401526107cb01526000818161022c0152818161085e0152818161096401528181610c9901528181610d0401528181610da101528181610e6c01528181610f0f01528181610fa7015281816112430152818161134501526113b001526000818161016e015281816108b2015281816108f701528181610bd801528181610c4d01528181610df501528181610e3101528181610ed801528181610f44015281816111a9015281816111e00152818161128401526112f90152600081816101df01528181610323015281816104a7015281816105840152818161069b015281816109e10152610ae301526121266000f3fe608060405234801561001057600080fd5b50600436106101005760003560e01c80636b29130611610097578063bcb4546f11610066578063bcb4546f14610299578063d7d58650146102bc578063d86ed3e5146102dc578063e4fbb609146102ef57600080fd5b80636b2913061461022757806372ca8a3e1461024e578063884d1f4014610271578063b22e97291461028457600080fd5b806331eff997116100d357806331eff997146101a357806349f289dc146101da57806353c11f99146102015780635f9e7d771461021457600080fd5b8063165b9d5514610105578063230dbd29146101495780632ccf7c421461016957806330d9c91514610190575b600080fd5b61012c7f000000000000000000000000000000000000000000000000000000000000000081565b6040516001600160a01b0390911681526020015b60405180910390f35b61015c610157366004611a6d565b610316565b6040516101409190611b88565b61012c7f000000000000000000000000000000000000000000000000000000000000000081565b61015c61019e366004611ba2565b610418565b6101b66101b1366004611c50565b61043d565b60408051600b94850b815292840b6020840152920b91810191909152606001610140565b61012c7f000000000000000000000000000000000000000000000000000000000000000081565b61015c61020f366004611a6d565b61049a565b61015c610222366004611ba2565b610577565b61012c7f000000000000000000000000000000000000000000000000000000000000000081565b61026161025c366004611c89565b61065c565b6040519015158152602001610140565b61015c61027f366004611ba2565b61068e565b610297610292366004611ca6565b61078b565b005b6102ae6000805160206120d183398151915281565b604051908152602001610140565b6000546102c990600b0b81565b604051600b9190910b8152602001610140565b61015c6102ea366004611a6d565b6109d4565b61012c7f000000000000000000000000000000000000000000000000000000000000000081565b6060336001600160a01b037f0000000000000000000000000000000000000000000000000000000000000000161461036157604051632f2d36a760e01b815260040160405180910390fd5b61036a89610abd565b6103ad5782828080601f01602080910402602001604051908101604052809392919081815260200183838082843760009201919091525092935061040b92505050565b6103b68a61065c565b6103d357604051631ea25bab60e31b815260040160405180910390fd5b60006103e187890189611cc3565b5090506000806103f387890189611cf1565b915091506104058d8484848a8a610b71565b93505050505b9998505050505050505050565b604080518082019091526002815261060f60f31b60208201525b979650505050505050565b600080806103e861044e8582611d33565b6104589087611d6b565b6104629190611d92565b92506103e86104718587611d6b565b61047b9190611d92565b91506104878284611dde565b6104919086611d33565b90509250925092565b6060336001600160a01b037f0000000000000000000000000000000000000000000000000000000000000000161415806104da57506104d889610abd565b155b806104eb57506104e98a61065c565b155b1561052f5782828080601f01602080910402602001604051908101604052809392919081815260200183838082843760009201919091525092935061040b92505050565b60008061053e888a018a611cc3565b9092509050600080610552888a018a611e10565b915091506105658e858584868c8c610d34565b9e9d5050505050505050505050505050565b6060336001600160a01b037f0000000000000000000000000000000000000000000000000000000000000000161415806105b757506105b587610abd565b155b806105c857506105c68861065c565b155b156105ec5750604080518082019091526002815261060f60f31b6020820152610432565b6000806105fb86880188611cc3565b90925090506000806106176001600160a01b038d168585610fe7565b505091509150818160405160200161063c929190918252600b0b602082015260400190565b604051602081830303815290604052945050505050979650505050505050565b7f00000000000000000000000000000000000000000000000000000000000000006001600160a01b0390811691161490565b6060336001600160a01b037f000000000000000000000000000000000000000000000000000000000000000016146106d957604051632f2d36a760e01b815260040160405180910390fd5b6106e287610abd565b6107055750604080518082019091526002815261060f60f31b6020820152610432565b61070e8861065c565b61072b57604051631ea25bab60e31b815260040160405180910390fd5b600061073985870187611cc3565b5090506000806107536001600160a01b038c168430610fe7565b505060408051600b9290920b60208301528181019290925281518082038301815260609091019091529b9a5050505050505050505050565b600081600b0b1315806107a2575080600b0b6103e8145b156107c057604051630fd3ebeb60e31b815260040160405180910390fd5b336001600160a01b037f0000000000000000000000000000000000000000000000000000000000000000161461080957604051632cff942760e01b815260040160405180910390fd5b600080546bffffffffffffffffffffffff19166bffffffffffffffffffffffff83161781556108827f00000000000000000000000000000000000000000000000000000000000000006001600160a01b0316307f0000000000000000000000000000000000000000000000000000000000000000611089565b6108d66001600160a01b037f000000000000000000000000000000000000000000000000000000000000000016307f0000000000000000000000000000000000000000000000000000000000000000611089565b6108e09190611dde565b905060006108f0836103e8611d33565b905061095e7f00000000000000000000000000000000000000000000000000000000000000006103e86109238486611d6b565b61092d9190611d92565b6001600160a01b037f0000000000000000000000000000000000000000000000000000000000000000169190611121565b506109907f00000000000000000000000000000000000000000000000000000000000000006103e86109238686611d6b565b5060408051600b83810b825285900b60208201527f8d30480b6778bcc522e9b6a4315d4912921066256b74480d5befbe2f2e958f17910160405180910390a1505050565b6060336001600160a01b037f00000000000000000000000000000000000000000000000000000000000000001614610a1f57604051632f2d36a760e01b815260040160405180910390fd5b610a2889610abd565b610a6b5782828080601f01602080910402602001604051908101604052809392919081815260200183838082843760009201919091525092935061040b92505050565b610a748a61065c565b610a9157604051631ea25bab60e31b815260040160405180910390fd5b6000610a9f87890189611cc3565b509050610aae8b828686611148565b9b9a5050505050505050505050565b604051635b69006f60e11b81526000805160206120d183398151915260048201526000907f00000000000000000000000000000000000000000000000000000000000000006001600160a01b03169063b6d200de90602401602060405180830381865afa158015610b32573d6000803e3d6000fd5b505050506040513d601f19601f82011682018060405250810190610b569190611e35565b6001600160a01b0316826001600160a01b0316149050919050565b606082828080601f0160208091040260200160405190810160405280939291908181526020018383808284376000920182905250939450889250610bc29150506001600160a01b038a168930611089565b610bcc9190611d33565b600054909150610c8d907f0000000000000000000000000000000000000000000000000000000000000000906103e890610c0990600b0b82611d33565b610c139085611d6b565b610c1d9190611d92565b610c716001600160a01b037f000000000000000000000000000000000000000000000000000000000000000016307f0000000000000000000000000000000000000000000000000000000000000000611089565b610c7b9190611dde565b6001600160a01b038b169190856113e0565b600054909250610d28907f0000000000000000000000000000000000000000000000000000000000000000906103e890610cca90600b0b85611d6b565b610cd49190611d92565b610c716001600160a01b037f000000000000000000000000000000000000000000000000000000000000000016307f0000000000000000000000000000000000000000000000000000000000000000611089565b98975050505050505050565b606082828080601f0160208091040260200160405190810160405280939291908181526020018383808284376000920182905250939450889250610dc59150506001600160a01b037f000000000000000000000000000000000000000000000000000000000000000016307f0000000000000000000000000000000000000000000000000000000000000000611089565b610e196001600160a01b037f000000000000000000000000000000000000000000000000000000000000000016307f0000000000000000000000000000000000000000000000000000000000000000611089565b610e239190611dde565b610e2d9190611d33565b90507f00000000000000000000000000000000000000000000000000000000000000006001600160a01b0316876001600160a01b03161480610ea057507f00000000000000000000000000000000000000000000000000000000000000006001600160a01b0316876001600160a01b0316145b15610ebd57610eba6001600160a01b038a168888856114fe565b91505b600081600b0b13610f3b57610efd6001600160a01b038a16307f00000000000000000000000000000000000000000000000000000000000000008561154c565b9150610f346001600160a01b038a16307f00000000000000000000000000000000000000000000000000000000000000008561154c565b9150610fdb565b600054610f9b907f0000000000000000000000000000000000000000000000000000000000000000906103e890610f7590600b0b82611d33565b610f7f9085611d6b565b610f899190611d92565b6001600160a01b038c169190856113e0565b600054909250610fd8907f0000000000000000000000000000000000000000000000000000000000000000906103e890610f7f90600b0b85611d6b565b91505b50979650505050505050565b6000806000806000610ff8886115d8565b604051631cd43d1160e31b81526001600160a01b038b811660048301528a811660248301528981166044830152919350908316915063e6a1e88890606401608060405180830381865afa158015611053573d6000803e3d6000fd5b505050506040513d601f19601f820116820180604052508101906110779190611e52565b929b919a509850909650945050505050565b600080611095856115d8565b604051631cd43d1160e31b81526001600160a01b03888116600483015287811660248301528681166044830152919350908316915063e6a1e88890606401608060405180830381865afa1580156110f0573d6000803e3d6000fd5b505050506040513d601f19601f820116820180604052508101906111149190611e52565b5090979650505050505050565b6040805160008082526020820190925261114090859085908590611747565b949350505050565b606082828080601f0160208091040260200160405190810160405280939291908181526020018383808284376000920182905250939450611197925050506001600160a01b0387168630611089565b90506111cd6001600160a01b038716307f0000000000000000000000000000000000000000000000000000000000000000611089565b600b0b60000361127b57600054611237907f0000000000000000000000000000000000000000000000000000000000000000906103e89061121190600b0b82611d33565b61121b9085611d6b565b6112259190611d92565b6001600160a01b0389169190856114fe565b600054909250611274907f0000000000000000000000000000000000000000000000000000000000000000906103e89061121b90600b0b85611d6b565b91506113d7565b600054611339907f0000000000000000000000000000000000000000000000000000000000000000906103e8906112b590600b0b82611d33565b6112bf9085611d6b565b6112c99190611d92565b61131d6001600160a01b037f000000000000000000000000000000000000000000000000000000000000000016307f0000000000000000000000000000000000000000000000000000000000000000611089565b6113279190611dde565b6001600160a01b0389169190856113e0565b6000549092506113d4907f0000000000000000000000000000000000000000000000000000000000000000906103e89061137690600b0b85611d6b565b6113809190611d92565b61131d6001600160a01b037f000000000000000000000000000000000000000000000000000000000000000016307f0000000000000000000000000000000000000000000000000000000000000000611089565b91505b50949350505050565b60606000806113ee87611873565b91509150816001600160a01b0316634329d29382836001600160a01b03166350209a628b8b8b600067ffffffffffffffff81111561142e5761142e611e90565b6040519080825280601f01601f191660200182016040528015611458576020820181803683370190505b5060405160240161146c9493929190611ea6565b60408051808303601f1901815291815260208201805160e094851b6001600160e01b03909116179052519185901b6001600160e01b03191682526114b7939250908990600401611ee6565b6000604051808303816000875af11580156114d6573d6000803e3d6000fd5b505050506040513d6000823e601f3d908101601f19168201604052610fdb9190810190611fb7565b606060008061150c87611873565b91509150816001600160a01b0316634329d29382836001600160a01b03166362fc305e8b8b8b600067ffffffffffffffff81111561142e5761142e611e90565b606060008061155a87611873565b91509150816001600160a01b0316634329d29382836001600160a01b031663b4b333c68b8b8b600067ffffffffffffffff81111561159a5761159a611e90565b6040519080825280601f01601f1916602001820160405280156115c4576020820181803683370190505b5060405160240161146c949392919061201b565b7f65599bf746e17a00ea62e3610586992d88101b78eec3cf380706621fb97ea837547fb969d79d88acd02d04ed7ee7d43b949e7daf093d363abcfbbc43dfdfd1ce969a546001600160a01b038116611716576001600160a01b03821661169d57826001600160a01b03166320bc44256040518163ffffffff1660e01b8152600401602060405180830381865afa158015611676573d6000803e3d6000fd5b505050506040513d601f19601f8201168201806040525081019061169a9190611e35565b91505b604051635b69006f60e11b81526000805160206120d183398151915260048201526001600160a01b0383169063b6d200de90602401602060405180830381865afa1580156116ef573d6000803e3d6000fd5b505050506040513d601f19601f820116820180604052508101906117139190611e35565b90505b6001600160a01b03821661172c5761172c61204f565b6001600160a01b0381166117425761174261204f565b915091565b600080600061175587611873565b91509150816001600160a01b03166339255d5b82836001600160a01b03166350209a628b8b8b600067ffffffffffffffff81111561179557611795611e90565b6040519080825280601f01601f1916602001820160405280156117bf576020820181803683370190505b506040516024016117d39493929190611ea6565b60408051808303601f1901815291815260208201805160e094851b6001600160e01b03909116179052519185901b6001600160e01b031916825261181e939250908990600401612065565b6000604051808303816000875af115801561183d573d6000803e3d6000fd5b505050506040513d6000823e601f3d908101601f19168201604052611865919081019061209b565b506001979650505050505050565b7f65599bf746e17a00ea62e3610586992d88101b78eec3cf380706621fb97ea837547fb969d79d88acd02d04ed7ee7d43b949e7daf093d363abcfbbc43dfdfd1ce969a546001600160a01b038116611716576001600160a01b03821661193857826001600160a01b03166320bc44256040518163ffffffff1660e01b8152600401602060405180830381865afa158015611911573d6000803e3d6000fd5b505050506040513d601f19601f820116820180604052508101906119359190611e35565b91505b604051635b69006f60e11b81526000805160206120d183398151915260048201526001600160a01b0383169063b6d200de90602401602060405180830381865afa15801561198a573d6000803e3d6000fd5b505050506040513d601f19601f820116820180604052508101906119ae9190611e35565b9050817f65599bf746e17a00ea62e3610586992d88101b78eec3cf380706621fb97ea83755807fb969d79d88acd02d04ed7ee7d43b949e7daf093d363abcfbbc43dfdfd1ce969a556001600160a01b03821661172c5761172c61204f565b6001600160a01b0381168114611a2157600080fd5b50565b60008083601f840112611a3657600080fd5b50813567ffffffffffffffff811115611a4e57600080fd5b602083019150836020828501011115611a6657600080fd5b9250929050565b600080600080600080600080600060c08a8c031215611a8b57600080fd5b8935611a9681611a0c565b985060208a0135611aa681611a0c565b975060408a0135965060608a013567ffffffffffffffff80821115611aca57600080fd5b611ad68d838e01611a24565b909850965060808c0135915080821115611aef57600080fd5b611afb8d838e01611a24565b909650945060a08c0135915080821115611b1457600080fd5b50611b218c828d01611a24565b915080935050809150509295985092959850929598565b60005b83811015611b53578181015183820152602001611b3b565b50506000910152565b60008151808452611b74816020860160208601611b38565b601f01601f19169290920160200192915050565b602081526000611b9b6020830184611b5c565b9392505050565b600080600080600080600060a0888a031215611bbd57600080fd5b8735611bc881611a0c565b96506020880135611bd881611a0c565b955060408801359450606088013567ffffffffffffffff80821115611bfc57600080fd5b611c088b838c01611a24565b909650945060808a0135915080821115611c2157600080fd5b50611c2e8a828b01611a24565b989b979a50959850939692959293505050565b80600b0b8114611a2157600080fd5b60008060408385031215611c6357600080fd5b8235611c6e81611c41565b91506020830135611c7e81611c41565b809150509250929050565b600060208284031215611c9b57600080fd5b8135611b9b81611a0c565b600060208284031215611cb857600080fd5b8135611b9b81611c41565b60008060408385031215611cd657600080fd5b8235611ce181611a0c565b91506020830135611c7e81611a0c565b60008060408385031215611d0457600080fd5b8235611d0f81611c41565b946020939093013593505050565b634e487b7160e01b600052601160045260246000fd5b600b82810b9082900b0360016001605f1b031981126b7fffffffffffffffffffffff82131715611d6557611d65611d1d565b92915050565b600082600b0b82600b0b0280600b0b9150808214611d8b57611d8b611d1d565b5092915050565b600081600b0b83600b0b80611db757634e487b7160e01b600052601260045260246000fd5b60016001605f1b0319821460001982141615611dd557611dd5611d1d565b90059392505050565b600b81810b9083900b016b7fffffffffffffffffffffff811360016001605f1b031982121715611d6557611d65611d1d565b60008060408385031215611e2357600080fd5b823591506020830135611c7e81611c41565b600060208284031215611e4757600080fd5b8151611b9b81611a0c565b60008060008060808587031215611e6857600080fd5b845193506020850151611e7a81611c41565b6040860151606090960151949790965092505050565b634e487b7160e01b600052604160045260246000fd5b6001600160a01b03858116825284166020820152600b83900b6040820152608060608201819052600090611edc90830184611b5c565b9695505050505050565b6001600160a01b0384168152608060208201819052600090611f0a90830185611b5c565b8281038060408501526002825261060f60f31b6020830152604081016060850152506113d46040820185611b5c565b600082601f830112611f4a57600080fd5b815167ffffffffffffffff80821115611f6557611f65611e90565b604051601f8301601f19908116603f01168101908282118183101715611f8d57611f8d611e90565b81604052838152866020858801011115611fa657600080fd5b611edc846020830160208901611b38565b60008060408385031215611fca57600080fd5b825167ffffffffffffffff80821115611fe257600080fd5b611fee86838701611f39565b9350602085015191508082111561200457600080fd5b5061201185828601611f39565b9150509250929050565b6001600160a01b038581168252848116602083015283166040820152608060608201819052600090611edc90830184611b5c565b634e487b7160e01b600052600160045260246000fd5b6001600160a01b038416815260606020820181905260009061208990830185611b5c565b82810360408401526113d48185611b5c565b6000602082840312156120ad57600080fd5b815167ffffffffffffffff8111156120c457600080fd5b61114084828501611f3956fea9214cc96615e0085d3bb077758db69497dc2dce3b2b1e97bc93c3d18d83efd3a26469706673582212207eba3ea8e29b452ad6f68c5fe1e0b36aade96e606e7fbe6b9f409b512689cde964736f6c63430008130033a26469706673582212201be85dfc791bc9ca886286589cc35873831ede2ecbc136d94949b500f869355d64736f6c63430008130033",
    "linkReferences": {
      "lib/superfluid-protocol-monorepo/packages/ethereum-contracts/contracts/apps/SuperfluidLoaderLibrary.sol": {
        "SuperfluidLoaderLibrary": [
          {
            "start": 51,
            "length": 20
          }
        ]
      }
    }
  },
  "methodIdentifiers": {
    "HOST()": "49f289dc",
    "deployFlowSplitter(address,address,address,int96)": "2a58133b"
  },
  "id": 114
}