{
  "abi": [
    {
      "inputs": [
        {
          "internalType": "contract ISuperfluid",
          "name": "host_",
          "type": "address"
        }
      ],
      "stateMutability": "nonpayable",
      "type": "constructor"
    },
    {
      "anonymous": false,
      "inputs": [
        {
          "indexed": true,
          "internalType": "contract ISuperToken",
          "name": "superToken",
          "type": "address"
        },
        {
          "indexed": true,
          "internalType": "address",
          "name": "mainReceiver",
          "type": "address"
        },
        {
          "indexed": true,
          "internalType": "address",
          "name": "sideReceiver",
          "type": "address"
        },
        {
          "indexed": false,
          "internalType": "address",
          "name": "flowSplitter",
          "type": "address"
        },
        {
          "indexed": false,
          "internalType": "int96",
          "name": "mainReceiverPortion",
          "type": "int96"
        },
        {
          "indexed": false,
          "internalType": "int96",
          "name": "sideReceiverPortion",
          "type": "int96"
        }
      ],
      "name": "FlowSplitterCreated",
      "type": "event"
    },
    {
      "inputs": [],
      "name": "HOST",
      "outputs": [
        {
          "internalType": "contract ISuperfluid",
          "name": "",
          "type": "address"
        }
      ],
      "stateMutability": "view",
      "type": "function"
    },
    {
      "inputs": [
        {
          "internalType": "address",
          "name": "mainReceiver_",
          "type": "address"
        },
        {
          "internalType": "address",
          "name": "sideReceiver_",
          "type": "address"
        },
        {
          "internalType": "int96",
          "name": "sideReceiverPortion_",
          "type": "int96"
        },
        {
          "internalType": "contract ISuperToken",
          "name": "superToken_",
          "type": "address"
        }
      ],
      "name": "deployFlowSplitter",
      "outputs": [
        {
          "internalType": "address",
          "name": "flowSplitter",
          "type": "address"
        }
      ],
      "stateMutability": "nonpayable",
      "type": "function"
    }
  ],
  "bytecode": {
    "object": "0x60a060405234801561001057600080fd5b506040516127dd3803806127dd83398101604081905261002f916100ce565b600073__$e7e32d16fe8fb3ab64f85f3c048952484a$__6320bc44256040518163ffffffff1660e01b8152600401602060405180830381865af4925050508015610096575060408051601f3d908101601f19168201909252610093918101906100ce565b60015b6100a15750806100a4565b90505b6001600160a01b0316608052506100f2565b6001600160a01b03811681146100cb57600080fd5b50565b6000602082840312156100e057600080fd5b81516100eb816100b6565b9392505050565b6080516126cb6101126000396000818160400152609101526126cb6000f3fe608060405234801561001057600080fd5b50600436106100365760003560e01c806349f289dc1461003b578063d290f0371461007e575b600080fd5b6100627f000000000000000000000000000000000000000000000000000000000000000081565b6040516001600160a01b03909116815260200160405180910390f35b61006261008c3660046101bc565b6000807f0000000000000000000000000000000000000000000000000000000000000000868686866040516100c090610197565b6001600160a01b03958616815293851660208501529184166040840152600b0b6060830152909116608082015260a001604051809103906000f08015801561010c573d6000803e3d6000fd5b509050809150846001600160a01b0316866001600160a01b0316846001600160a01b03167fa126151d9dada23d35b5779478761ad247e2d565c424f1a5bd2d49c47e1ea9a185886103e8610160919061021f565b604080516001600160a01b039093168352600b91820b6020840152908a900b9082015260600160405180910390a450949350505050565b61242b8061026b83390190565b6001600160a01b03811681146101b957600080fd5b50565b600080600080608085870312156101d257600080fd5b84356101dd816101a4565b935060208501356101ed816101a4565b92506040850135600b81900b811461020457600080fd5b91506060850135610214816101a4565b939692955090935050565b600b82810b9082900b036b7fffffffffffffffffffffff1981126b7fffffffffffffffffffffff8213171561026457634e487b7160e01b600052601160045260246000fd5b9291505056fe6101006040523480156200001257600080fd5b506040516200242b3803806200242b8339810160408190526200003591620001af565b6001600160a01b03851660805284600180806401000000016040516315a722b960e31b8152600481018290526001600160a01b0386169063ad3915c890602401600060405180830381600087803b1580156200009057600080fd5b505af1158015620000a5573d6000803e3d6000fd5b505050505050505050600082600b0b131580620000c6575081600b0b6103e8145b15620000e557604051630fd3ebeb60e31b815260040160405180910390fd5b826001600160a01b0316846001600160a01b0316036200011857604051635292a99360e01b815260040160405180910390fd5b6001600160a01b0384163014806200013857506001600160a01b03831630145b1562000157576040516321c18ec360e21b815260040160405180910390fd5b6001600160a01b0393841660a05291831660c052600080546001600160601b0319166001600160601b03929092169190911790551660e0525062000235565b6001600160a01b0381168114620001ac57600080fd5b50565b600080600080600060a08688031215620001c857600080fd5b8551620001d58162000196565b6020870151909550620001e88162000196565b6040870151909450620001fb8162000196565b80935050606086015180600b0b81146200021457600080fd5b6080870151909250620002278162000196565b809150509295509295909350565b60805160a05160c05160e0516120ac6200037f6000396000818160ff0152818161062d015281816107b901528181610815015281816108bd01528181610bb001528181610c6701528181610d0401528181610d580152818161125c0152611313015260008181610222015281816107e4015281816108ea01528181610c1f01528181610c8a01528181610d2701528181610df201528181610e9501528181610f2d015281816111c9015281816112cb0152611336015260008181610163015281816108380152818161087d01528181610b5e01528181610bd301528181610d7b01528181610db701528181610e5e01528181610eca0152818161112f015281816111660152818161120a015261127f0152600081816101d5015281816102f201528181610476015281816105530152818161066a015281816109670152610a6901526120ac6000f3fe608060405234801561001057600080fd5b50600436106100f55760003560e01c80635f9e7d7711610097578063b22e972911610066578063b22e97291461027a578063bcb4546f1461028f578063d7d58650146102b2578063d86ed3e5146102d257600080fd5b80635f9e7d771461020a5780636b2913061461021d57806372ca8a3e14610244578063884d1f401461026757600080fd5b806330d9c915116100d357806330d9c9151461018557806331eff9971461019857806349f289dc146101d057806353c11f99146101f757600080fd5b8063165b9d55146100fa578063230dbd291461013e5780632ccf7c421461015e575b600080fd5b6101217f000000000000000000000000000000000000000000000000000000000000000081565b6040516001600160a01b0390911681526020015b60405180910390f35b61015161014c3660046119f3565b6102e5565b6040516101359190611b0e565b6101217f000000000000000000000000000000000000000000000000000000000000000081565b610151610193366004611b28565b6103e7565b6101ab6101a6366004611bd6565b61040c565b60408051600b94850b81529290930b6020830152151591810191909152606001610135565b6101217f000000000000000000000000000000000000000000000000000000000000000081565b6101516102053660046119f3565b610469565b610151610218366004611b28565b610546565b6101217f000000000000000000000000000000000000000000000000000000000000000081565b610257610252366004611c0f565b61062b565b6040519015158152602001610135565b610151610275366004611b28565b61065d565b61028d610288366004611c2c565b61075a565b005b6102a460008051602061205783398151915281565b604051908152602001610135565b6000546102bf90600b0b81565b604051600b9190910b8152602001610135565b6101516102e03660046119f3565b61095a565b6060336001600160a01b037f0000000000000000000000000000000000000000000000000000000000000000161461033057604051632f2d36a760e01b815260040160405180910390fd5b61033989610a43565b61037c5782828080601f0160208091040260200160405190810160405280939291908181526020018383808284376000920191909152509293506103da92505050565b6103858a61062b565b6103a257604051631ea25bab60e31b815260040160405180910390fd5b60006103b087890189611c49565b5090506000806103c287890189611c77565b915091506103d48d8484848a8a610af7565b93505050505b9998505050505050505050565b604080518082019091526002815261060f60f31b60208201525b979650505050505050565b600080806103e861041d8582611cb9565b6104279087611cf1565b6104319190611d18565b92506103e86104408587611cf1565b61044a9190611d18565b9150600b85900b61045b8385611d64565b600b0b141590509250925092565b6060336001600160a01b037f0000000000000000000000000000000000000000000000000000000000000000161415806104a957506104a789610a43565b155b806104ba57506104b88a61062b565b155b156104fe5782828080601f0160208091040260200160405190810160405280939291908181526020018383808284376000920191909152509293506103da92505050565b60008061050d888a018a611c49565b9092509050600080610521888a018a611d96565b915091506105348e858584868c8c610cba565b9e9d5050505050505050505050505050565b6060336001600160a01b037f000000000000000000000000000000000000000000000000000000000000000016141580610586575061058487610a43565b155b8061059757506105958861062b565b155b156105bb5750604080518082019091526002815261060f60f31b6020820152610401565b6000806105ca86880188611c49565b90925090506000806105e66001600160a01b038d168585610f6d565b505091509150818160405160200161060b929190918252600b0b602082015260400190565b604051602081830303815290604052945050505050979650505050505050565b7f00000000000000000000000000000000000000000000000000000000000000006001600160a01b0390811691161490565b6060336001600160a01b037f000000000000000000000000000000000000000000000000000000000000000016146106a857604051632f2d36a760e01b815260040160405180910390fd5b6106b187610a43565b6106d45750604080518082019091526002815261060f60f31b6020820152610401565b6106dd8861062b565b6106fa57604051631ea25bab60e31b815260040160405180910390fd5b600061070885870187611c49565b5090506000806107226001600160a01b038c168430610f6d565b505060408051600b9290920b60208301528181019290925281518082038301815260609091019091529b9a5050505050505050505050565b600081600b0b131580610771575080600b0b6103e8145b1561078f57604051630fd3ebeb60e31b815260040160405180910390fd5b600080546bffffffffffffffffffffffff19166bffffffffffffffffffffffff83161781556108087f00000000000000000000000000000000000000000000000000000000000000006001600160a01b0316307f000000000000000000000000000000000000000000000000000000000000000061100f565b61085c6001600160a01b037f000000000000000000000000000000000000000000000000000000000000000016307f000000000000000000000000000000000000000000000000000000000000000061100f565b6108669190611d64565b90506000610876836103e8611cb9565b90506108e47f00000000000000000000000000000000000000000000000000000000000000006103e86108a98486611cf1565b6108b39190611d18565b6001600160a01b037f00000000000000000000000000000000000000000000000000000000000000001691906110a7565b506109167f00000000000000000000000000000000000000000000000000000000000000006103e86108a98686611cf1565b5060408051600b83810b825285900b60208201527f8d30480b6778bcc522e9b6a4315d4912921066256b74480d5befbe2f2e958f17910160405180910390a1505050565b6060336001600160a01b037f000000000000000000000000000000000000000000000000000000000000000016146109a557604051632f2d36a760e01b815260040160405180910390fd5b6109ae89610a43565b6109f15782828080601f0160208091040260200160405190810160405280939291908181526020018383808284376000920191909152509293506103da92505050565b6109fa8a61062b565b610a1757604051631ea25bab60e31b815260040160405180910390fd5b6000610a2587890189611c49565b509050610a348b8286866110ce565b9b9a5050505050505050505050565b604051635b69006f60e11b815260008051602061205783398151915260048201526000907f00000000000000000000000000000000000000000000000000000000000000006001600160a01b03169063b6d200de90602401602060405180830381865afa158015610ab8573d6000803e3d6000fd5b505050506040513d601f19601f82011682018060405250810190610adc9190611dbb565b6001600160a01b0316826001600160a01b0316149050919050565b606082828080601f0160208091040260200160405190810160405280939291908181526020018383808284376000920182905250939450889250610b489150506001600160a01b038a16893061100f565b610b529190611cb9565b600054909150610c13907f0000000000000000000000000000000000000000000000000000000000000000906103e890610b8f90600b0b82611cb9565b610b999085611cf1565b610ba39190611d18565b610bf76001600160a01b037f000000000000000000000000000000000000000000000000000000000000000016307f000000000000000000000000000000000000000000000000000000000000000061100f565b610c019190611d64565b6001600160a01b038b16919085611366565b600054909250610cae907f0000000000000000000000000000000000000000000000000000000000000000906103e890610c5090600b0b85611cf1565b610c5a9190611d18565b610bf76001600160a01b037f000000000000000000000000000000000000000000000000000000000000000016307f000000000000000000000000000000000000000000000000000000000000000061100f565b98975050505050505050565b606082828080601f0160208091040260200160405190810160405280939291908181526020018383808284376000920182905250939450889250610d4b9150506001600160a01b037f000000000000000000000000000000000000000000000000000000000000000016307f000000000000000000000000000000000000000000000000000000000000000061100f565b610d9f6001600160a01b037f000000000000000000000000000000000000000000000000000000000000000016307f000000000000000000000000000000000000000000000000000000000000000061100f565b610da99190611d64565b610db39190611cb9565b90507f00000000000000000000000000000000000000000000000000000000000000006001600160a01b0316876001600160a01b03161480610e2657507f00000000000000000000000000000000000000000000000000000000000000006001600160a01b0316876001600160a01b0316145b15610e4357610e406001600160a01b038a16888885611484565b91505b600081600b0b13610ec157610e836001600160a01b038a16307f0000000000000000000000000000000000000000000000000000000000000000856114d2565b9150610eba6001600160a01b038a16307f0000000000000000000000000000000000000000000000000000000000000000856114d2565b9150610f61565b600054610f21907f0000000000000000000000000000000000000000000000000000000000000000906103e890610efb90600b0b82611cb9565b610f059085611cf1565b610f0f9190611d18565b6001600160a01b038c16919085611366565b600054909250610f5e907f0000000000000000000000000000000000000000000000000000000000000000906103e890610f0590600b0b85611cf1565b91505b50979650505050505050565b6000806000806000610f7e8861155e565b604051631cd43d1160e31b81526001600160a01b038b811660048301528a811660248301528981166044830152919350908316915063e6a1e88890606401608060405180830381865afa158015610fd9573d6000803e3d6000fd5b505050506040513d601f19601f82011682018060405250810190610ffd9190611dd8565b929b919a509850909650945050505050565b60008061101b8561155e565b604051631cd43d1160e31b81526001600160a01b03888116600483015287811660248301528681166044830152919350908316915063e6a1e88890606401608060405180830381865afa158015611076573d6000803e3d6000fd5b505050506040513d601f19601f8201168201806040525081019061109a9190611dd8565b5090979650505050505050565b604080516000808252602082019092526110c6908590859085906116cd565b949350505050565b606082828080601f016020809104026020016040519081016040528093929190818152602001838380828437600092018290525093945061111d925050506001600160a01b038716863061100f565b90506111536001600160a01b038716307f000000000000000000000000000000000000000000000000000000000000000061100f565b600b0b600003611201576000546111bd907f0000000000000000000000000000000000000000000000000000000000000000906103e89061119790600b0b82611cb9565b6111a19085611cf1565b6111ab9190611d18565b6001600160a01b038916919085611484565b6000549092506111fa907f0000000000000000000000000000000000000000000000000000000000000000906103e8906111a190600b0b85611cf1565b915061135d565b6000546112bf907f0000000000000000000000000000000000000000000000000000000000000000906103e89061123b90600b0b82611cb9565b6112459085611cf1565b61124f9190611d18565b6112a36001600160a01b037f000000000000000000000000000000000000000000000000000000000000000016307f000000000000000000000000000000000000000000000000000000000000000061100f565b6112ad9190611d64565b6001600160a01b038916919085611366565b60005490925061135a907f0000000000000000000000000000000000000000000000000000000000000000906103e8906112fc90600b0b85611cf1565b6113069190611d18565b6112a36001600160a01b037f000000000000000000000000000000000000000000000000000000000000000016307f000000000000000000000000000000000000000000000000000000000000000061100f565b91505b50949350505050565b6060600080611374876117f9565b91509150816001600160a01b0316634329d29382836001600160a01b03166350209a628b8b8b600067ffffffffffffffff8111156113b4576113b4611e16565b6040519080825280601f01601f1916602001820160405280156113de576020820181803683370190505b506040516024016113f29493929190611e2c565b60408051808303601f1901815291815260208201805160e094851b6001600160e01b03909116179052519185901b6001600160e01b031916825261143d939250908990600401611e6c565b6000604051808303816000875af115801561145c573d6000803e3d6000fd5b505050506040513d6000823e601f3d908101601f19168201604052610f619190810190611f3d565b6060600080611492876117f9565b91509150816001600160a01b0316634329d29382836001600160a01b03166362fc305e8b8b8b600067ffffffffffffffff8111156113b4576113b4611e16565b60606000806114e0876117f9565b91509150816001600160a01b0316634329d29382836001600160a01b031663b4b333c68b8b8b600067ffffffffffffffff81111561152057611520611e16565b6040519080825280601f01601f19166020018201604052801561154a576020820181803683370190505b506040516024016113f29493929190611fa1565b7f65599bf746e17a00ea62e3610586992d88101b78eec3cf380706621fb97ea837547fb969d79d88acd02d04ed7ee7d43b949e7daf093d363abcfbbc43dfdfd1ce969a546001600160a01b03811661169c576001600160a01b03821661162357826001600160a01b03166320bc44256040518163ffffffff1660e01b8152600401602060405180830381865afa1580156115fc573d6000803e3d6000fd5b505050506040513d601f19601f820116820180604052508101906116209190611dbb565b91505b604051635b69006f60e11b815260008051602061205783398151915260048201526001600160a01b0383169063b6d200de90602401602060405180830381865afa158015611675573d6000803e3d6000fd5b505050506040513d601f19601f820116820180604052508101906116999190611dbb565b90505b6001600160a01b0382166116b2576116b2611fd5565b6001600160a01b0381166116c8576116c8611fd5565b915091565b60008060006116db876117f9565b91509150816001600160a01b03166339255d5b82836001600160a01b03166350209a628b8b8b600067ffffffffffffffff81111561171b5761171b611e16565b6040519080825280601f01601f191660200182016040528015611745576020820181803683370190505b506040516024016117599493929190611e2c565b60408051808303601f1901815291815260208201805160e094851b6001600160e01b03909116179052519185901b6001600160e01b03191682526117a4939250908990600401611feb565b6000604051808303816000875af11580156117c3573d6000803e3d6000fd5b505050506040513d6000823e601f3d908101601f191682016040526117eb9190810190612021565b506001979650505050505050565b7f65599bf746e17a00ea62e3610586992d88101b78eec3cf380706621fb97ea837547fb969d79d88acd02d04ed7ee7d43b949e7daf093d363abcfbbc43dfdfd1ce969a546001600160a01b03811661169c576001600160a01b0382166118be57826001600160a01b03166320bc44256040518163ffffffff1660e01b8152600401602060405180830381865afa158015611897573d6000803e3d6000fd5b505050506040513d601f19601f820116820180604052508101906118bb9190611dbb565b91505b604051635b69006f60e11b815260008051602061205783398151915260048201526001600160a01b0383169063b6d200de90602401602060405180830381865afa158015611910573d6000803e3d6000fd5b505050506040513d601f19601f820116820180604052508101906119349190611dbb565b9050817f65599bf746e17a00ea62e3610586992d88101b78eec3cf380706621fb97ea83755807fb969d79d88acd02d04ed7ee7d43b949e7daf093d363abcfbbc43dfdfd1ce969a556001600160a01b0382166116b2576116b2611fd5565b6001600160a01b03811681146119a757600080fd5b50565b60008083601f8401126119bc57600080fd5b50813567ffffffffffffffff8111156119d457600080fd5b6020830191508360208285010111156119ec57600080fd5b9250929050565b600080600080600080600080600060c08a8c031215611a1157600080fd5b8935611a1c81611992565b985060208a0135611a2c81611992565b975060408a0135965060608a013567ffffffffffffffff80821115611a5057600080fd5b611a5c8d838e016119aa565b909850965060808c0135915080821115611a7557600080fd5b611a818d838e016119aa565b909650945060a08c0135915080821115611a9a57600080fd5b50611aa78c828d016119aa565b915080935050809150509295985092959850929598565b60005b83811015611ad9578181015183820152602001611ac1565b50506000910152565b60008151808452611afa816020860160208601611abe565b601f01601f19169290920160200192915050565b602081526000611b216020830184611ae2565b9392505050565b600080600080600080600060a0888a031215611b4357600080fd5b8735611b4e81611992565b96506020880135611b5e81611992565b955060408801359450606088013567ffffffffffffffff80821115611b8257600080fd5b611b8e8b838c016119aa565b909650945060808a0135915080821115611ba757600080fd5b50611bb48a828b016119aa565b989b979a50959850939692959293505050565b80600b0b81146119a757600080fd5b60008060408385031215611be957600080fd5b8235611bf481611bc7565b91506020830135611c0481611bc7565b809150509250929050565b600060208284031215611c2157600080fd5b8135611b2181611992565b600060208284031215611c3e57600080fd5b8135611b2181611bc7565b60008060408385031215611c5c57600080fd5b8235611c6781611992565b91506020830135611c0481611992565b60008060408385031215611c8a57600080fd5b8235611c9581611bc7565b946020939093013593505050565b634e487b7160e01b600052601160045260246000fd5b600b82810b9082900b0360016001605f1b031981126b7fffffffffffffffffffffff82131715611ceb57611ceb611ca3565b92915050565b600082600b0b82600b0b0280600b0b9150808214611d1157611d11611ca3565b5092915050565b600081600b0b83600b0b80611d3d57634e487b7160e01b600052601260045260246000fd5b60016001605f1b0319821460001982141615611d5b57611d5b611ca3565b90059392505050565b600b81810b9083900b016b7fffffffffffffffffffffff811360016001605f1b031982121715611ceb57611ceb611ca3565b60008060408385031215611da957600080fd5b823591506020830135611c0481611bc7565b600060208284031215611dcd57600080fd5b8151611b2181611992565b60008060008060808587031215611dee57600080fd5b845193506020850151611e0081611bc7565b6040860151606090960151949790965092505050565b634e487b7160e01b600052604160045260246000fd5b6001600160a01b03858116825284166020820152600b83900b6040820152608060608201819052600090611e6290830184611ae2565b9695505050505050565b6001600160a01b0384168152608060208201819052600090611e9090830185611ae2565b8281038060408501526002825261060f60f31b60208301526040810160608501525061135a6040820185611ae2565b600082601f830112611ed057600080fd5b815167ffffffffffffffff80821115611eeb57611eeb611e16565b604051601f8301601f19908116603f01168101908282118183101715611f1357611f13611e16565b81604052838152866020858801011115611f2c57600080fd5b611e62846020830160208901611abe565b60008060408385031215611f5057600080fd5b825167ffffffffffffffff80821115611f6857600080fd5b611f7486838701611ebf565b93506020850151915080821115611f8a57600080fd5b50611f9785828601611ebf565b9150509250929050565b6001600160a01b038581168252848116602083015283166040820152608060608201819052600090611e6290830184611ae2565b634e487b7160e01b600052600160045260246000fd5b6001600160a01b038416815260606020820181905260009061200f90830185611ae2565b828103604084015261135a8185611ae2565b60006020828403121561203357600080fd5b815167ffffffffffffffff81111561204a57600080fd5b6110c684828501611ebf56fea9214cc96615e0085d3bb077758db69497dc2dce3b2b1e97bc93c3d18d83efd3a26469706673582212209f20115e15a723ae27635c2c9b9ced9ef38cc005e04e98a99e690f448053a55864736f6c63430008130033a2646970667358221220c539314d1c2946bbc168f0ca0d7b2b6042bb79651e1fdf5f57c2a5647ddef7b764736f6c63430008130033",
    "linkReferences": {
      "lib/superfluid-protocol-monorepo/packages/ethereum-contracts/contracts/apps/SuperfluidLoaderLibrary.sol": {
        "SuperfluidLoaderLibrary": [
          {
            "start": 51,
            "length": 20
          }
        ]
      }
    }
  },
  "methodIdentifiers": {
    "HOST()": "49f289dc",
    "deployFlowSplitter(address,address,int96,address)": "d290f037"
  },
  "id": 114
}