{
  "abi": [
    {
      "inputs": [
        {
          "internalType": "contract ISuperfluid",
          "name": "_host",
          "type": "address"
        }
      ],
      "stateMutability": "nonpayable",
      "type": "constructor"
    },
    {
      "inputs": [],
      "name": "NO_NEGATIVE_PORTION",
      "type": "error"
    },
    {
      "inputs": [],
      "name": "NotAcceptedSuperToken",
      "type": "error"
    },
    {
      "inputs": [],
      "name": "NotImplemented",
      "type": "error"
    },
    {
      "inputs": [],
      "name": "SAME_RECEIVERS_NOT_ALLOWED",
      "type": "error"
    },
    {
      "inputs": [],
      "name": "UnauthorizedHost",
      "type": "error"
    },
    {
      "anonymous": false,
      "inputs": [
        {
          "indexed": false,
          "internalType": "uint8",
          "name": "version",
          "type": "uint8"
        }
      ],
      "name": "Initialized",
      "type": "event"
    },
    {
      "anonymous": false,
      "inputs": [
        {
          "indexed": false,
          "internalType": "int96",
          "name": "mainReceiverPortion",
          "type": "int96"
        },
        {
          "indexed": false,
          "internalType": "int96",
          "name": "newSideReceiverPortion",
          "type": "int96"
        }
      ],
      "name": "SplitUpdated",
      "type": "event"
    },
    {
      "inputs": [],
      "name": "CFAV1_TYPE",
      "outputs": [
        {
          "internalType": "bytes32",
          "name": "",
          "type": "bytes32"
        }
      ],
      "stateMutability": "view",
      "type": "function"
    },
    {
      "inputs": [],
      "name": "acceptedSuperToken",
      "outputs": [
        {
          "internalType": "contract ISuperToken",
          "name": "",
          "type": "address"
        }
      ],
      "stateMutability": "view",
      "type": "function"
    },
    {
      "inputs": [
        {
          "internalType": "contract ISuperToken",
          "name": "superToken",
          "type": "address"
        },
        {
          "internalType": "address",
          "name": "agreementClass",
          "type": "address"
        },
        {
          "internalType": "bytes32",
          "name": "",
          "type": "bytes32"
        },
        {
          "internalType": "bytes",
          "name": "agreementData",
          "type": "bytes"
        },
        {
          "internalType": "bytes",
          "name": "",
          "type": "bytes"
        },
        {
          "internalType": "bytes",
          "name": "ctx",
          "type": "bytes"
        }
      ],
      "name": "afterAgreementCreated",
      "outputs": [
        {
          "internalType": "bytes",
          "name": "newCtx",
          "type": "bytes"
        }
      ],
      "stateMutability": "nonpayable",
      "type": "function"
    },
    {
      "inputs": [
        {
          "internalType": "contract ISuperToken",
          "name": "superToken",
          "type": "address"
        },
        {
          "internalType": "address",
          "name": "agreementClass",
          "type": "address"
        },
        {
          "internalType": "bytes32",
          "name": "",
          "type": "bytes32"
        },
        {
          "internalType": "bytes",
          "name": "agreementData",
          "type": "bytes"
        },
        {
          "internalType": "bytes",
          "name": "cbdata",
          "type": "bytes"
        },
        {
          "internalType": "bytes",
          "name": "ctx",
          "type": "bytes"
        }
      ],
      "name": "afterAgreementTerminated",
      "outputs": [
        {
          "internalType": "bytes",
          "name": "newCtx",
          "type": "bytes"
        }
      ],
      "stateMutability": "nonpayable",
      "type": "function"
    },
    {
      "inputs": [
        {
          "internalType": "contract ISuperToken",
          "name": "superToken",
          "type": "address"
        },
        {
          "internalType": "address",
          "name": "agreementClass",
          "type": "address"
        },
        {
          "internalType": "bytes32",
          "name": "",
          "type": "bytes32"
        },
        {
          "internalType": "bytes",
          "name": "agreementData",
          "type": "bytes"
        },
        {
          "internalType": "bytes",
          "name": "cbdata",
          "type": "bytes"
        },
        {
          "internalType": "bytes",
          "name": "ctx",
          "type": "bytes"
        }
      ],
      "name": "afterAgreementUpdated",
      "outputs": [
        {
          "internalType": "bytes",
          "name": "newCtx",
          "type": "bytes"
        }
      ],
      "stateMutability": "nonpayable",
      "type": "function"
    },
    {
      "inputs": [
        {
          "internalType": "contract ISuperToken",
          "name": "",
          "type": "address"
        },
        {
          "internalType": "address",
          "name": "",
          "type": "address"
        },
        {
          "internalType": "bytes32",
          "name": "",
          "type": "bytes32"
        },
        {
          "internalType": "bytes",
          "name": "",
          "type": "bytes"
        },
        {
          "internalType": "bytes",
          "name": "",
          "type": "bytes"
        }
      ],
      "name": "beforeAgreementCreated",
      "outputs": [
        {
          "internalType": "bytes",
          "name": "",
          "type": "bytes"
        }
      ],
      "stateMutability": "pure",
      "type": "function"
    },
    {
      "inputs": [
        {
          "internalType": "contract ISuperToken",
          "name": "superToken",
          "type": "address"
        },
        {
          "internalType": "address",
          "name": "agreementClass",
          "type": "address"
        },
        {
          "internalType": "bytes32",
          "name": "",
          "type": "bytes32"
        },
        {
          "internalType": "bytes",
          "name": "agreementData",
          "type": "bytes"
        },
        {
          "internalType": "bytes",
          "name": "",
          "type": "bytes"
        }
      ],
      "name": "beforeAgreementTerminated",
      "outputs": [
        {
          "internalType": "bytes",
          "name": "",
          "type": "bytes"
        }
      ],
      "stateMutability": "view",
      "type": "function"
    },
    {
      "inputs": [
        {
          "internalType": "contract ISuperToken",
          "name": "superToken",
          "type": "address"
        },
        {
          "internalType": "address",
          "name": "agreementClass",
          "type": "address"
        },
        {
          "internalType": "bytes32",
          "name": "",
          "type": "bytes32"
        },
        {
          "internalType": "bytes",
          "name": "agreementData",
          "type": "bytes"
        },
        {
          "internalType": "bytes",
          "name": "",
          "type": "bytes"
        }
      ],
      "name": "beforeAgreementUpdated",
      "outputs": [
        {
          "internalType": "bytes",
          "name": "",
          "type": "bytes"
        }
      ],
      "stateMutability": "view",
      "type": "function"
    },
    {
      "inputs": [],
      "name": "host",
      "outputs": [
        {
          "internalType": "contract ISuperfluid",
          "name": "",
          "type": "address"
        }
      ],
      "stateMutability": "view",
      "type": "function"
    },
    {
      "inputs": [
        {
          "internalType": "address",
          "name": "_mainReceiver",
          "type": "address"
        },
        {
          "internalType": "address",
          "name": "_sideReceiver",
          "type": "address"
        },
        {
          "internalType": "int96",
          "name": "_sideReceiverPortion",
          "type": "int96"
        },
        {
          "internalType": "contract ISuperToken",
          "name": "_acceptedSuperToken",
          "type": "address"
        }
      ],
      "name": "initialize",
      "outputs": [],
      "stateMutability": "nonpayable",
      "type": "function"
    },
    {
      "inputs": [
        {
          "internalType": "contract ISuperToken",
          "name": "superToken",
          "type": "address"
        }
      ],
      "name": "isAcceptedSuperToken",
      "outputs": [
        {
          "internalType": "bool",
          "name": "",
          "type": "bool"
        }
      ],
      "stateMutability": "view",
      "type": "function"
    },
    {
      "inputs": [],
      "name": "mainReceiver",
      "outputs": [
        {
          "internalType": "address",
          "name": "",
          "type": "address"
        }
      ],
      "stateMutability": "view",
      "type": "function"
    },
    {
      "inputs": [],
      "name": "sideReceiver",
      "outputs": [
        {
          "internalType": "address",
          "name": "",
          "type": "address"
        }
      ],
      "stateMutability": "view",
      "type": "function"
    },
    {
      "inputs": [],
      "name": "sideReceiverPortion",
      "outputs": [
        {
          "internalType": "int96",
          "name": "",
          "type": "int96"
        }
      ],
      "stateMutability": "view",
      "type": "function"
    },
    {
      "inputs": [
        {
          "internalType": "int96",
          "name": "newSideReceiverPortion",
          "type": "int96"
        }
      ],
      "name": "updateSplit",
      "outputs": [],
      "stateMutability": "nonpayable",
      "type": "function"
    }
  ],
  "bytecode": {
    "object": "0x60806040523480156200001157600080fd5b5060405162001f4c38038062001f4c8339810160408190526200003491620000de565b600080546001600160a01b0319166001600160a01b0383161790558060018080640100000001826200006857640c00000000175b816200007657643000000000175b6040516315a722b960e31b8152600481018290526001600160a01b0386169063ad3915c890602401600060405180830381600087803b158015620000b957600080fd5b505af1158015620000ce573d6000803e3d6000fd5b5050505050505050505062000110565b600060208284031215620000f157600080fd5b81516001600160a01b03811681146200010957600080fd5b9392505050565b611e2c80620001206000396000f3fe608060405234801561001057600080fd5b50600436106100f55760003560e01c806372ca8a3e11610097578063d7d5865011610066578063d7d586501461022a578063d86ed3e514610251578063f437bc5914610264578063f59260911461027757600080fd5b806372ca8a3e146101af578063884d1f40146101e1578063b22e9729146101f4578063bcb4546f1461020757600080fd5b806353c11f99116100d357806353c11f99146101615780635f9e7d77146101745780637093752d14610187578063726fd5081461019c57600080fd5b8063230dbd29146100fa57806330d9c9151461012357806339ab9f8e14610136575b600080fd5b61010d610108366004611745565b61028a565b60405161011a9190611860565b60405180910390f35b61010d61013136600461187a565b610377565b600154610149906001600160a01b031681565b6040516001600160a01b03909116815260200161011a565b61010d61016f366004611745565b61039c565b61010d61018236600461187a565b610464565b61019a610195366004611928565b610534565b005b600254610149906001600160a01b031681565b6101d16101bd366004611984565b6003546001600160a01b0391821691161490565b604051901515815260200161011a565b61010d6101ef36600461187a565b610703565b61019a6102023660046119a1565b6107eb565b61021c600080516020611dd783398151915281565b60405190815260200161011a565b60025461023e90600160a01b9004600b0b81565b604051600b9190910b815260200161011a565b61010d61025f366004611745565b610928565b600054610149906001600160a01b031681565b600354610149906001600160a01b031681565b6000546060906001600160a01b031633146102b857604051632f2d36a760e01b815260040160405180910390fd5b6102c1896109fc565b6103045782828080601f01602080910402602001604051908101604052809392919081815260200183838082843760009201919091525092935061036a92505050565b6003546001600160a01b038b811691161461033257604051631ea25bab60e31b815260040160405180910390fd5b6000610340878901896119be565b509050600080610352878901896119f7565b915091506103648d8484848a8a610a92565b93505050505b9998505050505050505050565b604080518082019091526002815261060f60f31b60208201525b979650505050505050565b6000546060906001600160a01b0316331415806103bf57506103bd896109fc565b155b806103d857506003546001600160a01b038b8116911614155b1561041c5782828080601f01602080910402602001604051908101604052809392919081815260200183838082843760009201919091525092935061036a92505050565b60008061042b888a018a6119be565b909250905060008061043f888a018a611a23565b915091506104528e858584868c8c610bcd565b9e9d5050505050505050505050505050565b6000546060906001600160a01b0316331415806104875750610485876109fc565b155b806104a057506003546001600160a01b03898116911614155b156104c45750604080518082019091526002815261060f60f31b6020820152610391565b6000806104d3868801886119be565b90925090506000806104ef6001600160a01b038d168585610d7f565b5050915091508181604051602001610514929190918252600b0b602082015260400190565b604051602081830303815290604052945050505050979650505050505050565b600054600160a81b900460ff161580801561055c57506000546001600160a01b90910460ff16105b8061057d5750303b15801561057d5750600054600160a01b900460ff166001145b6105e45760405162461bcd60e51b815260206004820152602e60248201527f496e697469616c697a61626c653a20636f6e747261637420697320616c72656160448201526d191e481a5b9a5d1a585b1a5e995960921b606482015260840160405180910390fd5b6000805460ff60a01b1916600160a01b1790558015610611576000805460ff60a81b1916600160a81b1790555b600083600b0b12156106365760405163a800775360e01b815260040160405180910390fd5b836001600160a01b0316856001600160a01b03160361066857604051635292a99360e01b815260040160405180910390fd5b600180546001600160a01b038088166001600160a01b0319928316179092556bffffffffffffffffffffffff8516600160a01b0286831617600255600380549285169290911691909117905580156106fc576000805460ff60a81b19169055604051600181527f7f26b83ff96e1f2b6a682f133852f6798a09c465da95921460cefb38474024989060200160405180910390a15b5050505050565b6000546060906001600160a01b0316331461073157604051632f2d36a760e01b815260040160405180910390fd5b61073a876109fc565b61075d5750604080518082019091526002815261060f60f31b6020820152610391565b6003546001600160a01b0389811691161461078b57604051631ea25bab60e31b815260040160405180910390fd5b6000610799858701876119be565b5090506000806107b36001600160a01b038c168430610d7f565b505060408051600b9290920b60208301528181019290925281518082038301815260609091019091529b9a5050505050505050505050565b600081600b0b12156108105760405163a800775360e01b815260040160405180910390fd5b600280546bffffffffffffffffffffffff8316600160a01b026001600160a01b03918216818117909355600354600093610851939182169230921617610e21565b60015460035461086f916001600160a01b0391821691309116610e21565b6108799190611a5e565b90506000610889836103e8611a96565b6001549091506108c6906001600160a01b03166103e86108a98486611ac8565b6108b39190611aef565b6003546001600160a01b03169190610eb9565b506002546108e4906001600160a01b03166103e86108a98686611ac8565b5060408051600b83810b825285900b60208201527f8d30480b6778bcc522e9b6a4315d4912921066256b74480d5befbe2f2e958f17910160405180910390a1505050565b6000546060906001600160a01b0316331461095657604051632f2d36a760e01b815260040160405180910390fd5b61095f896109fc565b6109a25782828080601f01602080910402602001604051908101604052809392919081815260200183838082843760009201919091525092935061036a92505050565b6003546001600160a01b038b81169116146109d057604051631ea25bab60e31b815260040160405180910390fd5b60006109de878901896119be565b5090506109ed8b828686610ee0565b9b9a5050505050505050505050565b60008054604051635b69006f60e11b8152600080516020611dd783398151915260048201526001600160a01b039091169063b6d200de90602401602060405180830381865afa158015610a53573d6000803e3d6000fd5b505050506040513d601f19601f82011682018060405250810190610a779190611b3b565b6001600160a01b0316826001600160a01b0316149050919050565b606082828080601f0160208091040260200160405190810160405280939291908181526020018383808284376000920182905250939450889250610ae39150506001600160a01b038a168930610e21565b610aed9190611a96565b600154600254919250610b6c916001600160a01b03909116906103e890610b1e90600160a01b9004600b0b82611a96565b610b289085611ac8565b610b329190611aef565b600154600354610b50916001600160a01b0391821691309116610e21565b610b5a9190611a5e565b6001600160a01b038b169190856110b8565b600254909250610bc1906001600160a01b038116906103e890610b9990600160a01b9004600b0b85611ac8565b610ba39190611aef565b600254600354610b50916001600160a01b0391821691309116610e21565b98975050505050505050565b606082828080601f016020809104026020016040519081016040528093929190818152602001838380828437600092018290525060025460035495965090948a9450610c2993506001600160a01b039081169250309116610e21565b600154600354610c47916001600160a01b0391821691309116610e21565b610c519190611a5e565b610c5b9190611a96565b6001549091506001600160a01b0388811691161480610c8757506002546001600160a01b038881169116145b15610ca457610ca16001600160a01b038a168888856111d6565b91505b600081600b0b13610cf157600154610ccb906001600160a01b038b81169130911685611224565b600254909250610cea906001600160a01b038b81169130911685611224565b9150610d73565b600154600254610d43916001600160a01b0316906103e890610d1d90600160a01b9004600b0b82611a96565b610d279085611ac8565b610d319190611aef565b6001600160a01b038c169190856110b8565b600254909250610d70906001600160a01b038116906103e890610d2790600160a01b9004600b0b85611ac8565b91505b50979650505050505050565b6000806000806000610d90886112b0565b604051631cd43d1160e31b81526001600160a01b038b811660048301528a811660248301528981166044830152919350908316915063e6a1e88890606401608060405180830381865afa158015610deb573d6000803e3d6000fd5b505050506040513d601f19601f82011682018060405250810190610e0f9190611b58565b929b919a509850909650945050505050565b600080610e2d856112b0565b604051631cd43d1160e31b81526001600160a01b03888116600483015287811660248301528681166044830152919350908316915063e6a1e88890606401608060405180830381865afa158015610e88573d6000803e3d6000fd5b505050506040513d601f19601f82011682018060405250810190610eac9190611b58565b5090979650505050505050565b60408051600080825260208201909252610ed89085908590859061141f565b949350505050565b606082828080601f0160208091040260200160405190810160405280939291908181526020018383808284376000920182905250939450610f2f925050506001600160a01b0387168630610e21565b600154909150610f4d906001600160a01b0388811691309116610e21565b600b0b600003610fdd57600154600254610fa9916001600160a01b0316906103e890610f8390600160a01b9004600b0b82611a96565b610f8d9085611ac8565b610f979190611aef565b6001600160a01b0389169190856111d6565b600254909250610fd6906001600160a01b038116906103e890610f8d90600160a01b9004600b0b85611ac8565b91506110af565b600154600254611057916001600160a01b0316906103e89061100990600160a01b9004600b0b82611a96565b6110139085611ac8565b61101d9190611aef565b60015460035461103b916001600160a01b0391821691309116610e21565b6110459190611a5e565b6001600160a01b0389169190856110b8565b6002549092506110ac906001600160a01b038116906103e89061108490600160a01b9004600b0b85611ac8565b61108e9190611aef565b60025460035461103b916001600160a01b0391821691309116610e21565b91505b50949350505050565b60606000806110c68761154b565b91509150816001600160a01b0316634329d29382836001600160a01b03166350209a628b8b8b600067ffffffffffffffff81111561110657611106611b96565b6040519080825280601f01601f191660200182016040528015611130576020820181803683370190505b506040516024016111449493929190611bac565b60408051808303601f1901815291815260208201805160e094851b6001600160e01b03909116179052519185901b6001600160e01b031916825261118f939250908990600401611bec565b6000604051808303816000875af11580156111ae573d6000803e3d6000fd5b505050506040513d6000823e601f3d908101601f19168201604052610d739190810190611cbd565b60606000806111e48761154b565b91509150816001600160a01b0316634329d29382836001600160a01b03166362fc305e8b8b8b600067ffffffffffffffff81111561110657611106611b96565b60606000806112328761154b565b91509150816001600160a01b0316634329d29382836001600160a01b031663b4b333c68b8b8b600067ffffffffffffffff81111561127257611272611b96565b6040519080825280601f01601f19166020018201604052801561129c576020820181803683370190505b506040516024016111449493929190611d21565b7f65599bf746e17a00ea62e3610586992d88101b78eec3cf380706621fb97ea837547fb969d79d88acd02d04ed7ee7d43b949e7daf093d363abcfbbc43dfdfd1ce969a546001600160a01b0381166113ee576001600160a01b03821661137557826001600160a01b03166320bc44256040518163ffffffff1660e01b8152600401602060405180830381865afa15801561134e573d6000803e3d6000fd5b505050506040513d601f19601f820116820180604052508101906113729190611b3b565b91505b604051635b69006f60e11b8152600080516020611dd783398151915260048201526001600160a01b0383169063b6d200de90602401602060405180830381865afa1580156113c7573d6000803e3d6000fd5b505050506040513d601f19601f820116820180604052508101906113eb9190611b3b565b90505b6001600160a01b03821661140457611404611d55565b6001600160a01b03811661141a5761141a611d55565b915091565b600080600061142d8761154b565b91509150816001600160a01b03166339255d5b82836001600160a01b03166350209a628b8b8b600067ffffffffffffffff81111561146d5761146d611b96565b6040519080825280601f01601f191660200182016040528015611497576020820181803683370190505b506040516024016114ab9493929190611bac565b60408051808303601f1901815291815260208201805160e094851b6001600160e01b03909116179052519185901b6001600160e01b03191682526114f6939250908990600401611d6b565b6000604051808303816000875af1158015611515573d6000803e3d6000fd5b505050506040513d6000823e601f3d908101601f1916820160405261153d9190810190611da1565b506001979650505050505050565b7f65599bf746e17a00ea62e3610586992d88101b78eec3cf380706621fb97ea837547fb969d79d88acd02d04ed7ee7d43b949e7daf093d363abcfbbc43dfdfd1ce969a546001600160a01b0381166113ee576001600160a01b03821661161057826001600160a01b03166320bc44256040518163ffffffff1660e01b8152600401602060405180830381865afa1580156115e9573d6000803e3d6000fd5b505050506040513d601f19601f8201168201806040525081019061160d9190611b3b565b91505b604051635b69006f60e11b8152600080516020611dd783398151915260048201526001600160a01b0383169063b6d200de90602401602060405180830381865afa158015611662573d6000803e3d6000fd5b505050506040513d601f19601f820116820180604052508101906116869190611b3b565b9050817f65599bf746e17a00ea62e3610586992d88101b78eec3cf380706621fb97ea83755807fb969d79d88acd02d04ed7ee7d43b949e7daf093d363abcfbbc43dfdfd1ce969a556001600160a01b03821661140457611404611d55565b6001600160a01b03811681146116f957600080fd5b50565b60008083601f84011261170e57600080fd5b50813567ffffffffffffffff81111561172657600080fd5b60208301915083602082850101111561173e57600080fd5b9250929050565b600080600080600080600080600060c08a8c03121561176357600080fd5b893561176e816116e4565b985060208a013561177e816116e4565b975060408a0135965060608a013567ffffffffffffffff808211156117a257600080fd5b6117ae8d838e016116fc565b909850965060808c01359150808211156117c757600080fd5b6117d38d838e016116fc565b909650945060a08c01359150808211156117ec57600080fd5b506117f98c828d016116fc565b915080935050809150509295985092959850929598565b60005b8381101561182b578181015183820152602001611813565b50506000910152565b6000815180845261184c816020860160208601611810565b601f01601f19169290920160200192915050565b6020815260006118736020830184611834565b9392505050565b600080600080600080600060a0888a03121561189557600080fd5b87356118a0816116e4565b965060208801356118b0816116e4565b955060408801359450606088013567ffffffffffffffff808211156118d457600080fd5b6118e08b838c016116fc565b909650945060808a01359150808211156118f957600080fd5b506119068a828b016116fc565b989b979a50959850939692959293505050565b80600b0b81146116f957600080fd5b6000806000806080858703121561193e57600080fd5b8435611949816116e4565b93506020850135611959816116e4565b9250604085013561196981611919565b91506060850135611979816116e4565b939692955090935050565b60006020828403121561199657600080fd5b8135611873816116e4565b6000602082840312156119b357600080fd5b813561187381611919565b600080604083850312156119d157600080fd5b82356119dc816116e4565b915060208301356119ec816116e4565b809150509250929050565b60008060408385031215611a0a57600080fd5b8235611a1581611919565b946020939093013593505050565b60008060408385031215611a3657600080fd5b8235915060208301356119ec81611919565b634e487b7160e01b600052601160045260246000fd5b600b81810b9083900b016b7fffffffffffffffffffffff811360016001605f1b031982121715611a9057611a90611a48565b92915050565b600b82810b9082900b0360016001605f1b031981126b7fffffffffffffffffffffff82131715611a9057611a90611a48565b600082600b0b82600b0b0280600b0b9150808214611ae857611ae8611a48565b5092915050565b600081600b0b83600b0b80611b1457634e487b7160e01b600052601260045260246000fd5b60016001605f1b0319821460001982141615611b3257611b32611a48565b90059392505050565b600060208284031215611b4d57600080fd5b8151611873816116e4565b60008060008060808587031215611b6e57600080fd5b845193506020850151611b8081611919565b6040860151606090960151949790965092505050565b634e487b7160e01b600052604160045260246000fd5b6001600160a01b03858116825284166020820152600b83900b6040820152608060608201819052600090611be290830184611834565b9695505050505050565b6001600160a01b0384168152608060208201819052600090611c1090830185611834565b8281038060408501526002825261060f60f31b6020830152604081016060850152506110ac6040820185611834565b600082601f830112611c5057600080fd5b815167ffffffffffffffff80821115611c6b57611c6b611b96565b604051601f8301601f19908116603f01168101908282118183101715611c9357611c93611b96565b81604052838152866020858801011115611cac57600080fd5b611be2846020830160208901611810565b60008060408385031215611cd057600080fd5b825167ffffffffffffffff80821115611ce857600080fd5b611cf486838701611c3f565b93506020850151915080821115611d0a57600080fd5b50611d1785828601611c3f565b9150509250929050565b6001600160a01b038581168252848116602083015283166040820152608060608201819052600090611be290830184611834565b634e487b7160e01b600052600160045260246000fd5b6001600160a01b0384168152606060208201819052600090611d8f90830185611834565b82810360408401526110ac8185611834565b600060208284031215611db357600080fd5b815167ffffffffffffffff811115611dca57600080fd5b610ed884828501611c3f56fea9214cc96615e0085d3bb077758db69497dc2dce3b2b1e97bc93c3d18d83efd3a26469706673582212208a297bb2284aea1f563ac9e865c0bfea2a21b360465e085d3eb1c68cdf68a46b64736f6c63430008130033",
    "linkReferences": {}
  },
  "methodIdentifiers": {
    "CFAV1_TYPE()": "bcb4546f",
    "acceptedSuperToken()": "f5926091",
    "afterAgreementCreated(address,address,bytes32,bytes,bytes,bytes)": "d86ed3e5",
    "afterAgreementTerminated(address,address,bytes32,bytes,bytes,bytes)": "53c11f99",
    "afterAgreementUpdated(address,address,bytes32,bytes,bytes,bytes)": "230dbd29",
    "beforeAgreementCreated(address,address,bytes32,bytes,bytes)": "30d9c915",
    "beforeAgreementTerminated(address,address,bytes32,bytes,bytes)": "5f9e7d77",
    "beforeAgreementUpdated(address,address,bytes32,bytes,bytes)": "884d1f40",
    "host()": "f437bc59",
    "initialize(address,address,int96,address)": "7093752d",
    "isAcceptedSuperToken(address)": "72ca8a3e",
    "mainReceiver()": "39ab9f8e",
    "sideReceiver()": "726fd508",
    "sideReceiverPortion()": "d7d58650",
    "updateSplit(int96)": "b22e9729"
  },
  "id": 114
}